{
  "contractName": "LiteralExamples",
  "abi": [
    {
      "inputs": [],
      "name": "decimalLiteral",
      "outputs": [
        {
          "internalType": "uint256",
          "name": "",
          "type": "uint256"
        }
      ],
      "stateMutability": "view",
      "type": "function"
    },
    {
      "inputs": [],
      "name": "exampleAddress",
      "outputs": [
        {
          "internalType": "address",
          "name": "",
          "type": "address"
        }
      ],
      "stateMutability": "view",
      "type": "function"
    },
    {
      "inputs": [],
      "name": "falseLiteral",
      "outputs": [
        {
          "internalType": "bool",
          "name": "",
          "type": "bool"
        }
      ],
      "stateMutability": "view",
      "type": "function"
    },
    {
      "inputs": [
        {
          "internalType": "uint256",
          "name": "",
          "type": "uint256"
        }
      ],
      "name": "fixedArray",
      "outputs": [
        {
          "internalType": "uint256",
          "name": "",
          "type": "uint256"
        }
      ],
      "stateMutability": "view",
      "type": "function"
    },
    {
      "inputs": [],
      "name": "greeting",
      "outputs": [
        {
          "internalType": "string",
          "name": "",
          "type": "string"
        }
      ],
      "stateMutability": "view",
      "type": "function"
    },
    {
      "inputs": [],
      "name": "hexLiteral",
      "outputs": [
        {
          "internalType": "uint256",
          "name": "",
          "type": "uint256"
        }
      ],
      "stateMutability": "view",
      "type": "function"
    },
    {
      "inputs": [],
      "name": "hexLiterals",
      "outputs": [
        {
          "internalType": "bytes",
          "name": "",
          "type": "bytes"
        }
      ],
      "stateMutability": "view",
      "type": "function"
    },
    {
      "inputs": [],
      "name": "scientificNotation",
      "outputs": [
        {
          "internalType": "uint256",
          "name": "",
          "type": "uint256"
        }
      ],
      "stateMutability": "view",
      "type": "function"
    },
    {
      "inputs": [],
      "name": "trueLiteral",
      "outputs": [
        {
          "internalType": "bool",
          "name": "",
          "type": "bool"
        }
      ],
      "stateMutability": "view",
      "type": "function"
    }
  ],
  "bytecode": "0x60806040526130395f5561abcd6001556103e8600255600160035f6101000a81548160ff0219169083151502179055505f600360016101000a81548160ff0219169083151502179055506040518060400160405280601081526020017f48656c6c6f2c20536f6c69646974792100000000000000000000000000000000815250600490816200008f919062000443565b506040518060400160405280600581526020017f48656c6c6f00000000000000000000000000000000000000000000000000000081525060059081620000d6919062000589565b50731234567890abcdef1234567890abcdef1234567860065f6101000a81548173ffffffffffffffffffffffffffffffffffffffff021916908373ffffffffffffffffffffffffffffffffffffffff1602179055506040518060600160405280600160ff168152602001600260ff168152602001600360ff1681525060079060036200016492919062000178565b5034801562000171575f80fd5b506200066d565b8260038101928215620001af579160200282015b82811115620001ae578251829060ff169055916020019190600101906200018c565b5b509050620001be9190620001c2565b5090565b5b80821115620001db575f815f905550600101620001c3565b5090565b5f81519050919050565b7f4e487b71000000000000000000000000000000000000000000000000000000005f52604160045260245ffd5b7f4e487b71000000000000000000000000000000000000000000000000000000005f52602260045260245ffd5b5f60028204905060018216806200025b57607f821691505b60208210810362000271576200027062000216565b5b50919050565b5f819050815f5260205f209050919050565b5f6020601f8301049050919050565b5f82821b905092915050565b5f60088302620002d57fffffffffffffffffffffffffffffffffffffffffffffffffffffffffffffffff8262000298565b620002e1868362000298565b95508019841693508086168417925050509392505050565b5f819050919050565b5f819050919050565b5f6200032b620003256200031f84620002f9565b62000302565b620002f9565b9050919050565b5f819050919050565b62000346836200030b565b6200035e620003558262000332565b848454620002a4565b825550505050565b5f90565b6200037462000366565b620003818184846200033b565b505050565b5b81811015620003a8576200039c5f826200036a565b60018101905062000387565b5050565b601f821115620003f757620003c18162000277565b620003cc8462000289565b81016020851015620003dc578190505b620003f4620003eb8562000289565b83018262000386565b50505b505050565b5f82821c905092915050565b5f620004195f1984600802620003fc565b1980831691505092915050565b5f62000433838362000408565b9150826002028217905092915050565b6200044e82620001df565b67ffffffffffffffff8111156200046a5762000469620001e9565b5b62000476825462000243565b62000483828285620003ac565b5f60209050601f831160018114620004b9575f8415620004a4578287015190505b620004b0858262000426565b8655506200051f565b601f198416620004c98662000277565b5f5b82811015620004f257848901518255600182019150602085019450602081019050620004cb565b868310156200051257848901516200050e601f89168262000408565b8355505b6001600288020188555050505b505050505050565b5f819050815f5260205f209050919050565b601f82111562000584576200054e8162000527565b620005598462000289565b8101602085101562000569578190505b62000581620005788562000289565b83018262000386565b50505b505050565b6200059482620001df565b67ffffffffffffffff811115620005b057620005af620001e9565b5b620005bc825462000243565b620005c982828562000539565b5f60209050601f831160018114620005ff575f8415620005ea578287015190505b620005f6858262000426565b86555062000665565b601f1984166200060f8662000527565b5f5b82811015620006385784890151825560018201915060208501945060208101905062000611565b8683101562000658578489015162000654601f89168262000408565b8355505b6001600288020188555050505b505050505050565b610605806200067b5f395ff3fe608060405234801561000f575f80fd5b5060043610610091575f3560e01c806364c2ad4f1161006457806364c2ad4f1461010d5780638cbcb7481461012b5780639a5009ac14610149578063c28036be14610179578063ef690cc01461019757610091565b8063050e132f146100955780631cb07845146100b357806343ea2ad5146100d15780635830bdfd146100ef575b5f80fd5b61009d6101b5565b6040516100aa9190610359565b60405180910390f35b6100bb6101bb565b6040516100c891906103fc565b60405180910390f35b6100d9610247565b6040516100e69190610359565b60405180910390f35b6100f761024c565b6040516101049190610436565b60405180910390f35b61011561025e565b6040516101229190610436565b60405180910390f35b610133610271565b604051610140919061048e565b60405180910390f35b610163600480360381019061015e91906104d5565b610296565b6040516101709190610359565b60405180910390f35b6101816102af565b60405161018e9190610359565b60405180910390f35b61019f6102b5565b6040516101ac9190610552565b60405180910390f35b60025481565b600580546101c89061059f565b80601f01602080910402602001604051908101604052809291908181526020018280546101f49061059f565b801561023f5780601f106102165761010080835404028352916020019161023f565b820191905f5260205f20905b81548152906001019060200180831161022257829003601f168201915b505050505081565b5f5481565b60035f9054906101000a900460ff1681565b600360019054906101000a900460ff1681565b60065f9054906101000a900473ffffffffffffffffffffffffffffffffffffffff1681565b600781600381106102a5575f80fd5b015f915090505481565b60015481565b600480546102c29061059f565b80601f01602080910402602001604051908101604052809291908181526020018280546102ee9061059f565b80156103395780601f1061031057610100808354040283529160200191610339565b820191905f5260205f20905b81548152906001019060200180831161031c57829003601f168201915b505050505081565b5f819050919050565b61035381610341565b82525050565b5f60208201905061036c5f83018461034a565b92915050565b5f81519050919050565b5f82825260208201905092915050565b5f5b838110156103a957808201518184015260208101905061038e565b5f8484015250505050565b5f601f19601f8301169050919050565b5f6103ce82610372565b6103d8818561037c565b93506103e881856020860161038c565b6103f1816103b4565b840191505092915050565b5f6020820190508181035f83015261041481846103c4565b905092915050565b5f8115159050919050565b6104308161041c565b82525050565b5f6020820190506104495f830184610427565b92915050565b5f73ffffffffffffffffffffffffffffffffffffffff82169050919050565b5f6104788261044f565b9050919050565b6104888161046e565b82525050565b5f6020820190506104a15f83018461047f565b92915050565b5f80fd5b6104b481610341565b81146104be575f80fd5b50565b5f813590506104cf816104ab565b92915050565b5f602082840312156104ea576104e96104a7565b5b5f6104f7848285016104c1565b91505092915050565b5f81519050919050565b5f82825260208201905092915050565b5f61052482610500565b61052e818561050a565b935061053e81856020860161038c565b610547816103b4565b840191505092915050565b5f6020820190508181035f83015261056a818461051a565b905092915050565b7f4e487b71000000000000000000000000000000000000000000000000000000005f52602260045260245ffd5b5f60028204905060018216806105b657607f821691505b6020821081036105c9576105c8610572565b5b5091905056fea26469706673582212201d336846622778158f12eefa65284473d6c9b2e24037430e6ef358114c4ad69d64736f6c63430008150033",
  "immutableReferences": {},
  "source": "// SPDX-License-Identifier: UNLICENSED\npragma solidity ^0.8.0;\n\ncontract LiteralExamples {\n    // Integer literals\n    uint256 public decimalLiteral = 12345;\n    uint256 public hexLiteral = 0xABCD;\n    uint256 public scientificNotation = 1e3; // 1 * 10^3\n\n    // Boolean literals\n    bool public trueLiteral = true;\n    bool public falseLiteral = false;\n\n    // String literals\n    string public greeting = \"Hello, Solidity!\";\n\n    // Hexadecimal literals\n    bytes public hexLiterals = hex\"48656c6c6f\"; // \"Hello\" in ASCII\n\n    // Address literals\n    address public exampleAddress = 0x1234567890AbcdEF1234567890aBcdef12345678;\n\n    // Fixed-size array literals\n    uint[3] public fixedArray = [1, 2, 3];\n}\n\n",
  "sourcePath": "C:\\Users\\25-00275\\git\\Blockchain\\smc_test\\contracts\\test.sol",
  "compiler": {
    "name": "solc",
    "version": "0.8.21+commit.d9974bed.Emscripten.clang"
  },
  "schemaVersion": "3.4.16",
  "updatedAt": "2024-06-14T04:13:07.137Z",
  "devdoc": {
    "kind": "dev",
    "methods": {},
    "version": 1
  },
  "userdoc": {
    "kind": "user",
    "methods": {},
    "version": 1
  }
}