{
  "contractName": "TestContract",
  "abi": [
    {
      "inputs": [],
      "stateMutability": "nonpayable",
      "type": "constructor"
    },
    {
      "inputs": [],
      "name": "counter",
      "outputs": [
        {
          "internalType": "uint256",
          "name": "",
          "type": "uint256"
        }
      ],
      "stateMutability": "view",
      "type": "function"
    },
    {
      "inputs": [],
      "name": "IncrementCounter",
      "outputs": [],
      "stateMutability": "nonpayable",
      "type": "function"
    }
  ],
  "bytecode": "0x60806040525f8055348015610012575f80fd5b5061002161002660201b60201c565b6100bb565b5f8081548092919061003790610074565b9190505550565b7f4e487b71000000000000000000000000000000000000000000000000000000005f52601160045260245ffd5b5f819050919050565b5f61007e8261006b565b91507fffffffffffffffffffffffffffffffffffffffffffffffffffffffffffffffff82036100b0576100af61003e565b5b600182019050919050565b610158806100c85f395ff3fe608060405234801561000f575f80fd5b5060043610610034575f3560e01c80630ffca1dd1461003857806361bc221a14610042575b5f80fd5b610040610060565b005b61004a610078565b6040516100579190610095565b60405180910390f35b5f80815480929190610071906100db565b9190505550565b5f5481565b5f819050919050565b61008f8161007d565b82525050565b5f6020820190506100a85f830184610086565b92915050565b7f4e487b71000000000000000000000000000000000000000000000000000000005f52601160045260245ffd5b5f6100e58261007d565b91507fffffffffffffffffffffffffffffffffffffffffffffffffffffffffffffffff8203610117576101166100ae565b5b60018201905091905056fea26469706673582212207b120a13529acf200ff7f47c44036de7e5e3adf1a37206df232a9c9cd20717cc64736f6c63430008150033",
  "immutableReferences": {},
  "source": "//SPDX-License-Identifier: UNLICENSED\npragma solidity ^0.8.0;\n\ncontract TestContract \n{\n\tuint public counter = 0;\n\n\tconstructor() {\n\t\tIncrementCounter();\n\t}\n\n\tfunction IncrementCounter() public\n\t{\n\t\tcounter ++;\n\t}\n}\n",
  "sourcePath": "C:\\Users\\25-00275\\git\\Blockchain\\smc_test\\contracts\\TestContract.sol",
  "compiler": {
    "name": "solc",
    "version": "0.8.21+commit.d9974bed.Emscripten.clang"
  },
  "schemaVersion": "3.4.16",
  "updatedAt": "2024-06-21T04:28:51.594Z",
  "devdoc": {
    "kind": "dev",
    "methods": {},
    "version": 1
  },
  "userdoc": {
    "kind": "user",
    "methods": {},
    "version": 1
  }
}