{
  "contractName": "Token",
  "abi": [
    {
      "inputs": [],
      "stateMutability": "nonpayable",
      "type": "constructor"
    },
    {
      "inputs": [
        {
          "internalType": "address",
          "name": "account",
          "type": "address"
        }
      ],
      "name": "balanceOf",
      "outputs": [
        {
          "internalType": "uint256",
          "name": "",
          "type": "uint256"
        }
      ],
      "stateMutability": "view",
      "type": "function"
    },
    {
      "inputs": [
        {
          "internalType": "address",
          "name": "toAccount2",
          "type": "address"
        },
        {
          "internalType": "uint256",
          "name": "amount",
          "type": "uint256"
        }
      ],
      "name": "transfer",
      "outputs": [
        {
          "internalType": "bool",
          "name": "",
          "type": "bool"
        }
      ],
      "stateMutability": "nonpayable",
      "type": "function"
    },
    {
      "inputs": [],
      "name": "getAssetName",
      "outputs": [
        {
          "internalType": "string",
          "name": "",
          "type": "string"
        }
      ],
      "stateMutability": "view",
      "type": "function"
    }
  ],
  "bytecode": "0x60806040526040518060400160405280600381526020017f56697a00000000000000000000000000000000000000000000000000000000008152505f90816200004991906200034b565b5034801562000056575f80fd5b5060648010156200009e576040517f08c379a00000000000000000000000000000000000000000000000000000000081526004016200009590620004b3565b60405180910390fd5b606460015f3373ffffffffffffffffffffffffffffffffffffffff1673ffffffffffffffffffffffffffffffffffffffff1681526020019081526020015f2081905550620004d3565b5f81519050919050565b7f4e487b71000000000000000000000000000000000000000000000000000000005f52604160045260245ffd5b7f4e487b71000000000000000000000000000000000000000000000000000000005f52602260045260245ffd5b5f60028204905060018216806200016357607f821691505b6020821081036200017957620001786200011e565b5b50919050565b5f819050815f5260205f209050919050565b5f6020601f8301049050919050565b5f82821b905092915050565b5f60088302620001dd7fffffffffffffffffffffffffffffffffffffffffffffffffffffffffffffffff82620001a0565b620001e98683620001a0565b95508019841693508086168417925050509392505050565b5f819050919050565b5f819050919050565b5f620002336200022d620002278462000201565b6200020a565b62000201565b9050919050565b5f819050919050565b6200024e8362000213565b620002666200025d826200023a565b848454620001ac565b825550505050565b5f90565b6200027c6200026e565b6200028981848462000243565b505050565b5b81811015620002b057620002a45f8262000272565b6001810190506200028f565b5050565b601f821115620002ff57620002c9816200017f565b620002d48462000191565b81016020851015620002e4578190505b620002fc620002f38562000191565b8301826200028e565b50505b505050565b5f82821c905092915050565b5f620003215f198460080262000304565b1980831691505092915050565b5f6200033b838362000310565b9150826002028217905092915050565b6200035682620000e7565b67ffffffffffffffff811115620003725762000371620000f1565b5b6200037e82546200014b565b6200038b828285620002b4565b5f60209050601f831160018114620003c1575f8415620003ac578287015190505b620003b885826200032e565b86555062000427565b601f198416620003d1866200017f565b5f5b82811015620003fa57848901518255600182019150602085019450602081019050620003d3565b868310156200041a578489015162000416601f89168262000310565b8355505b6001600288020188555050505b505050505050565b5f82825260208201905092915050565b7f4465706c6f796572206d7573742068617665206174206c6561737420313030205f8201527f56697a0000000000000000000000000000000000000000000000000000000000602082015250565b5f6200049b6023836200042f565b9150620004a8826200043f565b604082019050919050565b5f6020820190508181035f830152620004cc816200048d565b9050919050565b61065980620004e15f395ff3fe608060405234801561000f575f80fd5b506004361061003f575f3560e01c8063092d4eb51461004357806370a0823114610061578063a9059cbb14610091575b5f80fd5b61004b6100c1565b6040516100589190610356565b60405180910390f35b61007b600480360381019061007691906103d4565b610150565b6040516100889190610417565b60405180910390f35b6100ab60048036038101906100a6919061045a565b610196565b6040516100b891906104b2565b60405180910390f35b60605f80546100cf906104f8565b80601f01602080910402602001604051908101604052809291908181526020018280546100fb906104f8565b80156101465780601f1061011d57610100808354040283529160200191610146565b820191905f5260205f20905b81548152906001019060200180831161012957829003601f168201915b5050505050905090565b5f60015f8373ffffffffffffffffffffffffffffffffffffffff1673ffffffffffffffffffffffffffffffffffffffff1681526020019081526020015f20549050919050565b5f803390508260015f8373ffffffffffffffffffffffffffffffffffffffff1673ffffffffffffffffffffffffffffffffffffffff1681526020019081526020015f2054101561021b576040517f08c379a000000000000000000000000000000000000000000000000000000000815260040161021290610572565b60405180910390fd5b8260015f8373ffffffffffffffffffffffffffffffffffffffff1673ffffffffffffffffffffffffffffffffffffffff1681526020019081526020015f205f82825461026791906105bd565b925050819055508260015f8673ffffffffffffffffffffffffffffffffffffffff1673ffffffffffffffffffffffffffffffffffffffff1681526020019081526020015f205f8282546102ba91906105f0565b92505081905550600191505092915050565b5f81519050919050565b5f82825260208201905092915050565b5f5b838110156103035780820151818401526020810190506102e8565b5f8484015250505050565b5f601f19601f8301169050919050565b5f610328826102cc565b61033281856102d6565b93506103428185602086016102e6565b61034b8161030e565b840191505092915050565b5f6020820190508181035f83015261036e818461031e565b905092915050565b5f80fd5b5f73ffffffffffffffffffffffffffffffffffffffff82169050919050565b5f6103a38261037a565b9050919050565b6103b381610399565b81146103bd575f80fd5b50565b5f813590506103ce816103aa565b92915050565b5f602082840312156103e9576103e8610376565b5b5f6103f6848285016103c0565b91505092915050565b5f819050919050565b610411816103ff565b82525050565b5f60208201905061042a5f830184610408565b92915050565b610439816103ff565b8114610443575f80fd5b50565b5f8135905061045481610430565b92915050565b5f80604083850312156104705761046f610376565b5b5f61047d858286016103c0565b925050602061048e85828601610446565b9150509250929050565b5f8115159050919050565b6104ac81610498565b82525050565b5f6020820190506104c55f8301846104a3565b92915050565b7f4e487b71000000000000000000000000000000000000000000000000000000005f52602260045260245ffd5b5f600282049050600182168061050f57607f821691505b602082108103610522576105216104cb565b5b50919050565b7f4e6f7420656e6f7567682062616c616e636520746f207472616e7366657200005f82015250565b5f61055c601e836102d6565b915061056782610528565b602082019050919050565b5f6020820190508181035f83015261058981610550565b9050919050565b7f4e487b71000000000000000000000000000000000000000000000000000000005f52601160045260245ffd5b5f6105c7826103ff565b91506105d2836103ff565b92508282039050818111156105ea576105e9610590565b5b92915050565b5f6105fa826103ff565b9150610605836103ff565b925082820190508082111561061d5761061c610590565b5b9291505056fea2646970667358221220e7f261d181365f7898f404299e3d7327fac0cc9eb463efb85b94942cdae5de2a64736f6c63430008150033",
  "immutableReferences": {},
  "source": "// SPDX-License-Identifier: UNLICENSED\r\npragma solidity ^0.8.0;\r\n\r\ncontract Token {\r\n    string private assetName = \"Viz\"; // Token name\r\n    uint256 private constant initialSupply = 100; \r\n    uint256 private constant requiredBalance = 100; \r\n\r\n    mapping(address => uint256) private balances;\r\n\r\n    constructor() {\r\n        require(initialSupply >= requiredBalance, \"Deployer must have at least 100 Viz\");\r\n        balances[msg.sender] = initialSupply;\r\n    }\r\n\r\n    function balanceOf(address account) public view returns (uint256) {\r\n        return balances[account];\r\n    }\r\n\r\n    function transfer(address toAccount2, uint256 amount) public returns (bool) {\r\n        address fromAccount1 = msg.sender;\r\n        require(balances[fromAccount1] >= amount, \"Not enough balance to transfer\");\r\n        \r\n        balances[fromAccount1] -= amount;\r\n        balances[toAccount2] += amount;\r\n\r\n        return true;\r\n    }\r\n\r\n    function getAssetName() public view returns (string memory) {\r\n        return assetName;\r\n    }\r\n}\r\n\r\n",
  "sourcePath": "C:\\Users\\25-00275\\git\\Blockchain\\smc_test\\contracts\\Tx.sol",
  "compiler": {
    "name": "solc",
    "version": "0.8.21+commit.d9974bed.Emscripten.clang"
  },
  "schemaVersion": "3.4.16",
  "updatedAt": "2024-06-21T04:28:51.598Z",
  "devdoc": {
    "kind": "dev",
    "methods": {},
    "version": 1
  },
  "userdoc": {
    "kind": "user",
    "methods": {},
    "version": 1
  }
}